{
  "_format": "hh-sol-artifact-1",
  "contractName": "Marketplace",
  "sourceName": "src/backend/contracts/Marketplace.sol",
  "abi": [
    {
      "inputs": [
        {
          "internalType": "uint256",
          "name": "_feePercentage",
          "type": "uint256"
        }
      ],
      "stateMutability": "nonpayable",
      "type": "constructor"
    },
    {
      "anonymous": false,
      "inputs": [
        {
          "indexed": false,
          "internalType": "uint256",
          "name": "itemid",
          "type": "uint256"
        },
        {
          "indexed": true,
          "internalType": "address",
          "name": "",
          "type": "address"
        },
        {
          "indexed": false,
          "internalType": "uint256",
          "name": "tokenId",
          "type": "uint256"
        },
        {
          "indexed": false,
          "internalType": "uint256",
          "name": "price",
          "type": "uint256"
        },
        {
          "indexed": true,
          "internalType": "address",
          "name": "seller",
          "type": "address"
        }
      ],
      "name": "Offered",
      "type": "event"
    },
    {
      "inputs": [],
      "name": "feeAccount",
      "outputs": [
        {
          "internalType": "address payable",
          "name": "",
          "type": "address"
        }
      ],
      "stateMutability": "view",
      "type": "function"
    },
    {
      "inputs": [],
      "name": "feePercent",
      "outputs": [
        {
          "internalType": "uint256",
          "name": "",
          "type": "uint256"
        }
      ],
      "stateMutability": "view",
      "type": "function"
    },
    {
      "inputs": [],
      "name": "itemCount",
      "outputs": [
        {
          "internalType": "uint256",
          "name": "",
          "type": "uint256"
        }
      ],
      "stateMutability": "view",
      "type": "function"
    },
    {
      "inputs": [
        {
          "internalType": "uint256",
          "name": "",
          "type": "uint256"
        }
      ],
      "name": "items",
      "outputs": [
        {
          "internalType": "uint256",
          "name": "itemId",
          "type": "uint256"
        },
        {
          "internalType": "contract IERC721",
          "name": "nft",
          "type": "address"
        },
        {
          "internalType": "uint256",
          "name": "tokenId",
          "type": "uint256"
        },
        {
          "internalType": "uint256",
          "name": "price",
          "type": "uint256"
        },
        {
          "internalType": "address payable",
          "name": "seller",
          "type": "address"
        },
        {
          "internalType": "bool",
          "name": "sold",
          "type": "bool"
        }
      ],
      "stateMutability": "view",
      "type": "function"
    },
    {
      "inputs": [
        {
          "internalType": "contract IERC721",
          "name": "_nft",
          "type": "address"
        },
        {
          "internalType": "uint256",
          "name": "_tokenId",
          "type": "uint256"
        },
        {
          "internalType": "uint256",
          "name": "_price",
          "type": "uint256"
        }
      ],
      "name": "makeItem",
      "outputs": [],
      "stateMutability": "nonpayable",
      "type": "function"
    }
  ],
  "bytecode": "0x60c060405234801561001057600080fd5b50604051610a1f380380610a1f83398181016040528101906100329190610094565b60016000819055503373ffffffffffffffffffffffffffffffffffffffff1660808173ffffffffffffffffffffffffffffffffffffffff1660601b815250508060a08181525050506100de565b60008151905061008e816100c7565b92915050565b6000602082840312156100a657600080fd5b60006100b48482850161007f565b91505092915050565b6000819050919050565b6100d0816100bd565b81146100db57600080fd5b50565b60805160601c60a05161091961010660003960006101330152600061010901526109196000f3fe608060405234801561001057600080fd5b50600436106100575760003560e01c806365e17c9d1461005c5780636bfb0d011461007a5780637fd6f15c14610098578063bfb231d2146100b6578063fa00afc7146100eb575b600080fd5b610064610107565b60405161007191906105f8565b60405180910390f35b61008261012b565b60405161008f919061068a565b60405180910390f35b6100a0610131565b6040516100ad919061068a565b60405180910390f35b6100d060048036038101906100cb919061053e565b610155565b6040516100e2969594939291906106a5565b60405180910390f35b610105600480360381019061010091906104ef565b6101de565b005b7f000000000000000000000000000000000000000000000000000000000000000081565b60015481565b7f000000000000000000000000000000000000000000000000000000000000000081565b60026020528060005260406000206000915090508060000154908060010160009054906101000a900473ffffffffffffffffffffffffffffffffffffffff16908060020154908060030154908060040160009054906101000a900473ffffffffffffffffffffffffffffffffffffffff16908060040160149054906101000a900460ff16905086565b6101e661046b565b60008111610229576040517f08c379a00000000000000000000000000000000000000000000000000000000081526004016102209061064a565b60405180910390fd5b600180600082825461023b919061074e565b925050819055508273ffffffffffffffffffffffffffffffffffffffff166323b872dd3330856040518463ffffffff1660e01b815260040161027f93929190610613565b600060405180830381600087803b15801561029957600080fd5b505af11580156102ad573d6000803e3d6000fd5b505050506040518060c0016040528060015481526020018473ffffffffffffffffffffffffffffffffffffffff1681526020018381526020018281526020013373ffffffffffffffffffffffffffffffffffffffff168152602001600015158152506002600060015481526020019081526020016000206000820151816000015560208201518160010160006101000a81548173ffffffffffffffffffffffffffffffffffffffff021916908373ffffffffffffffffffffffffffffffffffffffff160217905550604082015181600201556060820151816003015560808201518160040160006101000a81548173ffffffffffffffffffffffffffffffffffffffff021916908373ffffffffffffffffffffffffffffffffffffffff16021790555060a08201518160040160146101000a81548160ff0219169083151502179055509050503373ffffffffffffffffffffffffffffffffffffffff168373ffffffffffffffffffffffffffffffffffffffff167f655a0cf9c8db81512be9a76dc1c5ae5380b8816ce6ad659cd61b715e2999d59a600154858560405161045693929190610706565b60405180910390a36104666104bb565b505050565b600260005414156104b1576040517f08c379a00000000000000000000000000000000000000000000000000000000081526004016104a89061066a565b60405180910390fd5b6002600081905550565b6001600081905550565b6000813590506104d4816108b5565b92915050565b6000813590506104e9816108cc565b92915050565b60008060006060848603121561050457600080fd5b6000610512868287016104c5565b9350506020610523868287016104da565b9250506040610534868287016104da565b9150509250925092565b60006020828403121561055057600080fd5b600061055e848285016104da565b91505092915050565b610570816107b6565b82525050565b61057f816107a4565b82525050565b61058e816107c8565b82525050565b61059d81610810565b82525050565b60006105b0601f8361073d565b91506105bb82610863565b602082019050919050565b60006105d3601f8361073d565b91506105de8261088c565b602082019050919050565b6105f281610806565b82525050565b600060208201905061060d6000830184610567565b92915050565b60006060820190506106286000830186610576565b6106356020830185610576565b61064260408301846105e9565b949350505050565b60006020820190508181036000830152610663816105a3565b9050919050565b60006020820190508181036000830152610683816105c6565b9050919050565b600060208201905061069f60008301846105e9565b92915050565b600060c0820190506106ba60008301896105e9565b6106c76020830188610594565b6106d460408301876105e9565b6106e160608301866105e9565b6106ee6080830185610567565b6106fb60a0830184610585565b979650505050505050565b600060608201905061071b60008301866105e9565b61072860208301856105e9565b61073560408301846105e9565b949350505050565b600082825260208201905092915050565b600061075982610806565b915061076483610806565b9250827fffffffffffffffffffffffffffffffffffffffffffffffffffffffffffffffff0382111561079957610798610834565b5b828201905092915050565b60006107af826107e6565b9050919050565b60006107c1826107e6565b9050919050565b60008115159050919050565b60006107df826107a4565b9050919050565b600073ffffffffffffffffffffffffffffffffffffffff82169050919050565b6000819050919050565b600061081b82610822565b9050919050565b600061082d826107e6565b9050919050565b7f4e487b7100000000000000000000000000000000000000000000000000000000600052601160045260246000fd5b7f5072696365206d7573742062652067726561746572207468616e207a65726f00600082015250565b7f5265656e7472616e637947756172643a207265656e7472616e742063616c6c00600082015250565b6108be816107d4565b81146108c957600080fd5b50565b6108d581610806565b81146108e057600080fd5b5056fea2646970667358221220036a1a21bc953fa778abcb42e4009bdcb62b965e8ee9f3f5002f74dc4cdb08ac64736f6c63430008040033",
  "linkReferences": {},
  "deployedLinkReferences": {}
}